:020000041000EA
:1000000000B5324B212058609868022188439860DF
:10001000D860186158612E4B002199600221596106
:100020000121F02299502B49196001219960352056
:1000300000F044F80222904214D00621196600F024
:1000400034F8196E01211966002018661A6600F04E
:100050002CF8196E196E196E052000F02FF8012189
:100060000842F9D1002199601B49196000215960AB
:100070001A491B48016001219960EB211966A021F2
:10008000196600F012F800219960164914480160C1
:100090000121996001BC002800D000471248134993
:1000A000086003C880F30888084703B5996A0420EC
:1000B0000142FBD001200142F8D103BD02B5186610
:1000C0001866FFF7F2FF186E186E02BD00000240BE
:1000D000000000180000070000035F00212200005C
:1000E000F4000018222000A00001001008ED00E03C
:1000F00000000000000000000000000074B24E7A12
:1001000000200420F7010010CB010010CD010010E9
:10011000C9010010C9010010C9010010C901001077
:10012000C9010010C9010010C9010010CF01001061
:10013000C9010010C9010010D1010010D301001045
:10014000C1010010C1010010C1010010C101001067
:10015000C1010010C1010010C1010010C101001057
:10016000C1010010C1010010C1010010C101001047
:10017000C1010010C1010010C1010010C101001037
:10018000C1010010C1010010C1010010C101001027
:10019000C1010010C1010010C1010010C101001017
:1001A000C1010010C1010010C1010010C101001007
:1001B000C1010010C1010010C1010010C1010010F7
:1001C000EFF30580103800BE00BE00BE00BE00BECA
:1001D00000BE00BEF2EB887190020010B402001065
:1001E0003802001090A31AE721482249086006C887
:1001F00081F30888104720480068002801D01C4877
:10020000F3E70DA40ECC002902D000F012F8F9E7B4
:100210001A491B4A002000E001C19142FCD1194952
:100220008847194988471949884700BEFDE701C931
:1002300001C29A42FBD37047B4020010E0000020D4
:1002400000810020D48200100081002060970020EF
:10025000349900100000042000000420349900109C
:10026000001004200010042000000000704700006F
:100270000000000008ED00E0000000D060970020C2
:1002800008FC0020455500207D0100203D55002040
:10029000F0940020FC940020089500201495002084
:1002A000209500202C950020389500201C960020D9
:0402B0001096002084
:1002B400F8B5C0460448054B10B5834203D0044B3F
:1002C400002B00D0984710BD609700206097002055
:1002D4000000000006480749091A8B10C90FC91805
:1002E40010B5491003D0044B002B00D0984710BD23
:1002F40060970020609700200000000010B5074CB4
:100304002378002B09D1FFF7D5FF054B002B02D032
:10031400044800E000BF0123237010BDF0E2002078
:100324000000000000810020054B10B5002B03D015
:100334000449054800E000BFFFF7CCFF10BDC046EC
:1003440000000000F4E2002000810020F0B5DE4649
:1003540057464E464546E0B587B002F039FF07F0F0
:10036400E3F9012305A900200B8005F0DFFD04F06B
:10037400D7FC2B4B2B4E9A462B4B2C4F9B462C4B8E
:1003840002932C4B03932C4B99462C4B98460120FB
:100394000021404205F044FE3068002810D0534646
:1003A4001C78FB23221F1A420AD1210004F04EFEBE
:1003B400039B0100009322005B46029802F0C0FFF9
:1003C4000023336004F05EF94B463C681D68002945
:1003D4001ED0FA220023920004F09EFE001B8542E8
:1003E400D5D84346641918783C6007F0B5F94346FC
:1003F40001221B7853404246137003F045F9012053
:100404000021404205F00CFE30680028D8D0C6E731
:10041400FA21890004F042FE001BA842B7D3E0E7AA
:1004240002FC0020E0FB0020F4FB0020E4FB0020A1
:10043400D0F500207CF500202896002006FC002042
:10044400FA22024B92001A607047C0462896002098
:10045400FA2210B5024B1A6002F02CFF10BDC04600
:100464002896002010B5034B034A1A6002F022FFBD
:1004740010BDC04628960020C4090000FA22024B91
:1004840092001A607047C04628960020F0B5CE4608
:10049400474680B54B7905000C0089B0042B08D081
:1004A4000026022B14D0300009B0C0BCB946B046B7
:1004B400F0BDCF78012F21D00026022FF3D14B7845
:1004C400012BF0D101AA137006F01CFE0600EAE726
:1004D400CB78012B3ED0022BE5D14B78022B50D0A8
:1004E400012BE0D189782D4B4900CB5A01AA138006
:1004F4002100022306F006FE0600D4E74B78984656
:10050400012B35D00026022BCDD101AB0E2099460C
:1005140010220021684405F0CBF84B4642461A806D
:100524006B461F4A1E81DA800A236B441A805E8060
:10053400EE221223D2016B441A805F8016236B448F
:100544001A805F804A461A232100280006F0DAFD4B
:100554000600A8E74B78012BA5D18978114B01AA95
:100564005B5C21001370012306F0CCFD06009AE7C2
:100574000D4B01AA1B680193042306F0C3FD06007A
:1005840091E701AA1100094B41CB41C10823210085
:10059400280006F0B7FD060085E7C046F4FB0020FE
:1005A40080BBFFFF7CF5002024960020208F0020D4
:1005B40010B54B79022B03D00020042B19D010BDA9
:1005C4004B780020012BFAD1CB78012B2DD0022BB4
:1005D400F5D1CB798C791B022343022BEFD15378CD
:1005E40010781B028A780343164852008352012074
:1005F400E5E74B78012BE2D1CB78012BDFD1CB7926
:100604008C791B022343042BD9D151781378090226
:1006140019439378D0781B040B43000618430A4B04
:10062400186002F023FE0120C9E7CB798C791B0204
:100634002343012BC3D10020044B10568A789854CD
:100644000120BCE7F4FB0020249600207CF5002068
:100654000B7910B5012B01D0012010BD8C78002C32
:10066400FAD1FA22034B92001A6002F023FE024BE5
:100674001C60F1E728960020E0FB002010B50B7900
:10068400012B01D0012010BD8B78002BFAD0192149
:10069400074A11600749084A5B5C137002F030FE98
:1006A400064B186802F0D8FD0022054B1A60E9E7F2
:1006B400289600201B8F002002FC00202496002096
:1006C400E0FB0020054B0A0010B51900002006F0DD
:1006D4000DFA034B1860012010BDC046D0F5002070
:1006E400E0FB0020004870478C91002000487047D0
:1006F400CC90002070B5002822D0052829D8164BAC
:100704008000C558280007F057FDC0B2041C1F28FC
:1007140014D8C026E4B2631CDBB25B00B6001E43EF
:10072400002808D000230D4AE95C01331180D9B2B6
:1007340002328C42F8D80A48068070BD1F24E8E7CC
:10074400C126054B02220548196804F0B7FFB6001C
:10075400F1E70020F1E7C0462C9600202EE50020AA
:100764002CE50020F0B5C646150080460F001600A3
:10077400140000B508358AB020000621013402F0C7
:10078400C9FFA542F8D101233200009341461F4816
:10079400073307F0E5F834002000032102F0E4FFFA
:1007A40020000121013402F0CFFFA542F4D100233F
:1007B40080220593F82352025B0202920393C02322
:1007C40002A91B03102206A8049304F077FF3A0041
:1007D400BB1C12321203DB01134306A9102202A828
:1007E400079304F06BFF80231B0433430593084BEA
:1007F4003A000493A023DB020293414602AB034870
:1008040007F008F90AB080BCB846F0BD00002050DB
:1008140000000640F0B54E4645465746DE4684463F
:10082400E0B585B0080002910093591663461B6831
:100834000392C91863461A606246D268441A914604
:10084400624612694D4692462D11A846554658688F
:100854009B682D129E1036184644A84662464644AC
:10086400761852692411002E01DC00F0E3FC012A01
:1008740001D100F0D8FC1422FC4E904604320192BF
:10088400173A9D128E1B761B4D4630181B18EE111D
:100894009E1B4E449D10AB46B2443511A9465546A5
:1008A40083442D12D944AB460919D94489444D4691
:1008B400002D01DC00F0C3FE012A01D100F05BFF32
:1008C400EA4A914601224D464D1BA9469D12AB466C
:1008D4004D465F46ED1BA94681444B44F011181A5E
:1008E4008619504687199810834630118246CB44A6
:1008F4003812DA4483466118DA448A4450460028A0
:1009040001DC00F0BFFE012A01D000F0B6FED84899
:10091400824655464D1BAA469D12AB46554658463F
:100924002D1AAA46CA4445465344F011181A814662
:100934001543AD004E44A8469D10AB463511A9465B
:10094400F019D3440512D944AB466118D9448944FB
:100954004D46002D01DC00F049FE013A551EAA4126
:10096400C44D52422A40C24DA9464A449D128A1A95
:10097400521B92445344F2119A1A96194546012285
:1009840015432A009D10A8463511A9468019051261
:10099400D044C844A9466118C84488444546002D3B
:1009A40001DC00F081FEB24DA84645464D1BA84629
:1009B4009D12A94645464F46ED1BA846C2445344E2
:1009C400F5115D1BA8464644B14604261201324384
:1009D40017004A461211904648449E10564402128B
:1009E40046449046611846447618002E01DC00F017
:1009F40056FE9F4A0126904645464D1BA8469D1229
:100A0400AB4645465A46AD1AA8464A46D0444344E6
:100A1400D2119A1A92469D10CA44AB4655462D11DE
:100A2400A9465044C3440512D944AB466118D9447D
:100A340089443A004D463243002D01DC00F0ABFD01
:100A4400013E35006E426E418B4D76422E40874DFD
:100A54001201A9464E449D128E1B761B5546B04486
:100A64004344EE119E1BB2440426324317005246FF
:100A74001211914650449E10464402124E4491462F
:100A840061184E447618002E01DC00F003FE784A0B
:100A9400012691464D464D1BA9469D12AB464D4637
:100AA4005A46AD1AA9465246C1444B44D2119A1A29
:100AB40090469D10D044AB4645462D11AA4640446D
:100AC400CB440512DA44AB460919DA448A443A00A5
:100AD40055463243002D01DC00F032FD013E350065
:100AE4006E426E41644D76422E40604D1201AA461C
:100AF40056449D128E1B761B4546B1444B44EE1161
:100B04009E1BB044042632431700424612119246FB
:100B140040449E104E440212564492466118564474
:100B24007618002E01DC00F0F7FD514A01269246AA
:100B340055464D1BAA469D12AB4655465A46AD1A1C
:100B4400AA464246CA445344D2119A1A91469D1069
:100B5400C144AB464D462D11A8464844D344051222
:100B6400D844AB466118D84488443A0045463243D9
:100B7400002D01DC00F0B9FC013E35006E426E41EF
:100B84003D4D76422E40394D1201A84646449D12F1
:100B94008E1B761B4D46B2445344EE119E1BB1444A
:100BA4000426324317004A461211904648449E10C8
:100BB4005644021246449046611846447618002E64
:100BC40001DC00F0A4FD2A4A0126904645464D1B4F
:100BD400A8469D12AB4645465A46AD1AA8464A4613
:100BE400D0444344D2119A1A92469D10CA44AB464B
:100BF40055462D11A9465044C3440512D944AB4669
:100C04006118D94489443A004D463243002D01DC31
:100C140000F040FC013E35006E426E41164D7642B6
:100C24002E40124D1201A9464E449D128E1B761B76
:100C34005546B0444344EE119E1BB244042632434D
:100C4400170052461211914650449E104644021217
:100C54004E44914661184E447618002E01DC00F093
:100C640051FD034A0126914608E0C04647846B00C3
:100C740000FF7F004785EBFFB97A14004D464D1BFA
:100C8400A9469D12AB464D465A46AD1AA946524650
:100C9400C1444B44D2119A1A90469D10D044AB469D
:100CA40045462D11AA464044CB440512DA44AB46CE
:100CB4006118DA448A443A0055463243002D00DC78
:100CC400C2E3013E35006E426E41F84D76422E403D
:100CD400F74D6418AA4656449D128E1B761B454652
:100CE400B1444B44EE119E1BB04445460426110109
:100CF4009A10404431434A442E1192190612921913
:100D04001219002A01DC00F0F9FC0126E94AA21AB2
:100D14009C12121B4A449246424631435344D21118
:100D2400019102999A1A42448846009C039924042A
:100D3400641644440F1B1111884680189D105544B5
:100D440001124544884645442D193F11002D00DC0D
:100D540062E31421009104318846012E01D100F090
:100D64000EFDD349012689464946611A89469912DE
:100D74008B4649465D46491B8946D1444B44D111B3
:100D8400591A8A46991052448A4611118B461018F2
:100D94000112CA44DA448B46E419DA44A2445146A7
:100DA400002900DC15E3013E711E8E41C2497642E2
:100DB4000E40C049884646449912A61B761AB1448F
:100DC4004B44D6119E1BB6183111884682199810CF
:100DD40048441112404488463C19404400190028F4
:100DE40001DC00F09EFCB349012088464146611AAB
:100DF400884699128A4641465546491B8846C84446
:100E04004344F111591A8946009D4E440543A900F3
:100E14008B469910894631118A46B2181112C14481
:100E2400D1448A463C19D144A1444946002900DCF6
:100E3400C8E2012801D100F0AAFC9D49012089469D
:100E44004946611A894699128A4649465546491BBC
:100E54008946C1445D464B44F111591A88460543FD
:100E6400A90046448B469910884631118A46921946
:100E74001112C844D0448A463C19D044A044414687
:100E8400002900DC97E2012801D100F07CFC8849AC
:100E9400012088464146611A884699128A4641468D
:100EA4005546491B8846C8445D464344F111591AC6
:100EB40089460543A9004E448B4699108946311151
:100EC4008A4692191112C144D1448A463C19D1442C
:100ED400A1444946002900DC66E2012801D100F062
:100EE40066FC7349012089464946611A894699126C
:100EF4008A4649465546491B8946C1445D464B448A
:100F0400F111591A88460543A90046448B469910A5
:100F1400884631118A4692191112C844D0448A462F
:100F24003C19D044A0444146002900DC35E20128A4
:100F340001D100F038FC5E49012088464146611A1F
:100F4400884699128A4641465546491B8846C844F4
:100F54005D464344F111591A89460543A9004E449C
:100F64008B469910894631118A4692191112C1444F
:100F7400D1448A463C19D144A1444946002900DCA5
:100F840004E2012801D100F00AFC49490120894604
:100F94004946611A894699128A4649465546491B6B
:100FA4008946C1444B44F111591A88469910464464
:100FB400884631118A4692191112C844D0448A468F
:100FC4003C19D044A0445D4641460543002900DC59
:100FD400B5E10138411E884137494042084035494E
:100FE4002D01884640449912201A401A81444B44EA
:100FF400F011181A80190426011188463543121875
:101004009E104E441112464488463C1946443619F3
:10101400AB46002E00DDBEE3284902268846414641
:10102400611A884699128A4641465546491B8846A4
:10103400C8444344C111591A894681444946C911D7
:10104400009199105D468B46494609118A464A44E7
:10105400C3441112DA448B463C19DA44A244514683
:10106400354338192D01002900DC40E104210D43EA
:10107400AB46012E00D159E310498A4699125444D3
:10108400641A444400991B195E1A4E44B046414602
:101094000911894642449E10361911124E4489465C
:1010A4004E443618002E00DC5AE309E0B97A1400E5
:1010B40047846B0000FF7F004785EBFFB97B94FFFB
:1010C400DB49012689464946411A894699128A46CE
:1010D40049465546491B894641464C44E318C911C3
:1010E400591A89469910C8448946414609118A46C5
:1010F40042441112A144D1448A463818D14481444F
:101104005D4649463543002900DCC6E0013E310016
:101114004E424E41C74976420E40C7492D01894689
:101124004E449912861B761A414636199B19CC11E6
:101134001C1BA0444146042409118946254342440A
:101144009C10A41911124C44894638184C44241894
:10115400AB46002C00DD0AE3B8490224894649461F
:10116400411A894699128A4649465546491B894679
:1011740041464E449B19C911591A8946C8444244F0
:101184004146914609118A4649469A109219091214
:1011940052448A465D463818524412182543002AA0
:1011A40053DD013C62425441A349A24A8A46644247
:1011B400224052449A469C124346821A121B9219A8
:1011C4009244DC1153461C1B4B4644441E19042311
:1011D4003F182801184353469B1025119B185B198F
:1011E40035125B19DB19002B00DDBDE20225934BA0
:1011F40061464D615146FB1A8F12DB1B9B186246F8
:10120400536053449360E2119B1A62461B1901997F
:10121400D3602843F318136105B0F0BCBB46B24653
:10122400A946A046F0BD1425A8460435804E019574
:10123400FFF727FB022A00D1DFE224229046043282
:1012440001927E4E263AFFF71CFB023C6242544157
:101254007A4962428A467A4C3F18224052449A465E
:101264009C124346821A121B92199244DC11534673
:101274001C1B4B4644441E1908232801184353469B
:101284009B1025119B185B1935125B19DB19002B78
:1012940000DCF9E20125684BAAE7023E31004E4228
:1012A4004E41674976420E4064492D0189464E44B9
:1012B4009912861B761A414636199B19CC111C1BB0
:1012C400A0444146082409118946254342449C1000
:1012D400A41911124C44894638184C442418AB46BE
:1012E400002C00DCD3E254490124894637E7023E4E
:1012F40031004E424E41524976420E404F498A4691
:1013040056449912A41B641A44440099E3185E1AC3
:101314004E44B046414608260911894635434244A5
:101324009E10361911124E4489464E443618AB4667
:10133400002E00DC49E2404901268946C3E6023812
:10134400411E88413B49404208403E492D018846A0
:1013540040449912201A401A81444B44F011181A3F
:101364008019082601118846354312189E104E44F0
:101374001112464488463C1946443619AB46002EA1
:1013840000DC88E22C490126884648E6022800D180
:1013940072E22A4902208946FAE5022800D167E26E
:1013A400264902208846C9E5022800D15CE2234987
:1013B4000220894698E5022800D151E21F49022003
:1013C400884667E5022800D146E21C490220894686
:1013D40036E5023E751EAE411A4975428A464146BB
:1013E400144E0091354055449E12651BAD1BA94413
:1013F4004B44D5115D1BAE18821998103511484421
:10140400401915123C1940190019002800DC1EE28D
:10141400094901208846E9E42421009104318846E1
:10142400022E00D10FE20549022689469CE4C046FB
:1014340000FF7F00B97A140047846B00B97B94FFE6
:101444004785EBFF000180FF023E35006E426E418E
:10145400F24D76422E40F24D6418AA4656449D122F
:101464008E1B761B4546B1444B44EE119E1BB04483
:1014740011010822454611439A102E1140444A4452
:101484009219061292191219002A00DCD7E10126DA
:10149400E44A3CE4023E35006E426E41DF4D764242
:1014A4002E40DF4D1201A9464E449D128E1B761B21
:1014B4005546B0444344EE119E1BB24408263243C1
:1014C400170052461211914650449E10464402128F
:1014D4004E44914661184E447618002E00DC87E194
:1014E400D04A01269146FFF7C9FB023E35006E4201
:1014F4006E41CA4D76422E40C94D1201A84646445B
:101504009D128E1B761B4D46B2445344EE119E1B16
:10151400B1440826324317004A4612119046484403
:101524009E1056440212464490466118464476186A
:10153400002E00DC57E1BB4A01269046FFF746FB2C
:10154400023E35006E426E41B44D76422E40B44D9B
:101554001201AA4656449D128E1B761B4546B14481
:101564004B44EE119E1BB0440826324317004246FA
:101574001211924640449E104E4402125644924622
:10158400611856447618002E00DC27E1A54A01268E
:101594009246FFF7CDFA023E35006E426E419F4DF2
:1015A40076422E409E4D1201A9464E449D128E1B3A
:1015B400761B5546B0444344EE119E1BB2440826A4
:1015C4003243170052461211914650449E1046442D
:1015D40002124E44914661184E447618002E00DCE7
:1015E400F7E0904A01269146FFF754FA023A551E55
:1015F400AA418D4D52422A408C4DA9464A449D121F
:101604008A1A521B92445344F2119A1A9619454667
:10161400022215432A009D10A8463511A9468019B7
:101624000512D044C844A9466118C84488444546B4
:10163400002D00DCEEE07B4DA846FFF7B6F9022A48
:1016440000D1E1E0774A9D128A18521B91468144E9
:101654004B44F2119A1A9619524630118046971942
:101664009A104A443812424480466118424452183F
:10167400002A00DCA2E0019A90466A4A92460122BE
:10168400FFF747F9022A00D1FAE0654A924602229E
:10169400FFF73FF9624A02269146FFF7FBF9604AD9
:1016A40002269046FFF7A8F95D4DA84645464D1B16
:1016B400A8469D12A94645464F46ED1BA846C2447E
:1016C4005344F5115D1BA8464644B1460826120151
:1016D400324317004A461211904648449E1056441D
:1016E400021246449046611846447618002E00DCE7
:1016F400A0E04C4A01269046FFF77EF90226484AAC
:10170400FFF705FB464A02269146FFF7B7FA444A1B
:1017140002269046FFF75AFA414A02269246FFF7FC
:1017240007FA3F4902208846FFF760FB3F498A4693
:1017340099125444641A44440099E318591A884687
:101744009910C8448946414609118A4642441112F7
:10175400A144D1448A46D1448144494600292ADC23
:101764002F4902268946AEE40125314B40E5304934
:1017740001248946F3E42E4DA946FFF7A4F82C4929
:101784008946FFF7F1FA2A498846FFF783FB28497F
:101794008946FFF755FB2649012688463FE424493C
:1017A4008946FFF7F5FB22498846FFF7C7FB204926
:1017B4008946FFF799FB1E49894684E4019A9046BD
:1017C4001A4A92460222FFF7A4F8184902268946CB
:1017D40079E4164A02269146FFF75CF9134A022679
:1017E4009246FFF7A5F9114A02269046FFF7EEF953
:1017F4000E4A02269146FFF741FA2425A8460435ED
:101804000A4E0195FFF73DF8019DA846074DA946EC
:10181400FFF759F8054DA84648E7C0464785EBFF52
:10182400B97B94FF47846B00B97A1400000180FFF0
:1018340000FF7F001A4A02269046FFF7DDF80226D1
:10184400174AFFF764FA16498946FFF78DFA1449D7
:1018540002208846FFF7CAFA11498946FFF7F0FAD1
:101864000F498846FFF716FB0D498946FFF73CFBF5
:101874000B498846FFF762FB09498946FFF788FB55
:1018840007488246FFF745F80225054BB0E40449B2
:101894000224894663E4024902268846FFF7BFFB17
:1018A400000180FFF0B557464E464546DE46E0B59A
:1018B4005316994685B002920269046892464C44D4
:1018C4000D1B0160C16843680A1190469C4652464C
:1018D4008368070046699810604412124044904699
:1018E400404400196D11002801DC00F030FD142281
:1018F400904604320392012E01D100F025FD012609
:10190400EC489A12201A801A60441B18CA119A1AB9
:1019140094468C445146A2469C10A34662466144B8
:10192400834414110A125C449346AA445C4454440C
:10193400002C01DC00F052FF012E01D101F000F86F
:101944000126DC4C5246141B9A12A41A6246201833
:101954001B18D4111C1B64449A10944622119346FC
:1019640009190A128444DC449346AA44DC44D4444E
:1019740062460191002A01DC00F053FF012E01D0E0
:1019840000F04AFFCC4A944661465246521A9446A5
:101994009A12934662465946521A94466044C318B2
:1019A400E2119A1A9446019A6444A11842463243B9
:1019B400920090469A1094462211934684440A1247
:1019C400DC449346AA44DC44D4446246002A01DC45
:1019D40000F0DAFE013E721E9641B84A7642164085
:1019E400B54A944652466644961B9A12B61A301863
:1019F4001B18E6119E1B34194246012632439346B6
:101A04009A1094462211904609190A128444C44437
:101A14009046AA44C444D4446246002A01DC00F03F
:101A240014FFA54A944666465246921B94469A125F
:101A3400904662464646921B94465246844463440A
:101A4400E011181A04190819A9185A460426120193
:101A540016439A10904622119246E0440212D04452
:101A64009246D044884442460196002A01DC00F0A4
:101A7400E6FE914A92460122904652468A1A9246BE
:101A84009A12934652465E46921B9246D44463444D
:101A9400E2119A1A92464246019E544416439A1001
:101AA40092462211934600190212E244DA44934604
:101AB4006918DA448A4452460196002A01DC00F08F
:101AC40027FE012252429246D04446467242724157
:101AD400524290467A4A9246424656463240904690
:101AE400744A9246D04442468A1A90469A129246C2
:101AF40042465646921B9046C4446344E2119A1AE5
:101B040090460426019A4444120116439A109046C2
:101B14002211924620180212E044D04492466918D9
:101B2400D044884442460196002A01DC00F081FE3C
:101B3400614A92460122904652468A1A92469A1265
:101B4400934652465E46921B9246D4446344E21145
:101B54009A1A92464246019E544416439A1092465B
:101B64002211934600190212E244DA44934669189A
:101B7400DA448A4452460196002A01DC00F08CFDC6
:101B8400012252429246D044464672427241524227
:101B940090464B4A92464246564632409046454A03
:101BA4009246D04442468A1A90469A129246424637
:101BB4005646921B9046C4446344E2119A1A9046D6
:101BC4000426019A4444120116439A1090462211A5
:101BD400924600190212E044D04492466918D04457
:101BE400884442460196002A01DC00F077FE324A1E
:101BF40092460122904652468A1A92469A12934677
:101C040052465E46921B9246D4446344E2119A1AA9
:101C140092464246019E544416439A10924622111B
:101C2400934620180212E244DA4493466918DA44CF
:101C34008A4452460196002A01DC00F0F3FC01229A
:101C440052429246D04446467242724152429046B3
:101C54001B4A92464246564632409046154A9246A0
:101C6400D04442468A1A90469A12924642465646B2
:101C7400921B9046C4446344E2119A1A9046042687
:101C8400019A44441201324390462211924620188C
:101C94009E106644021256449246691856447618B9
:101CA400002E01DC00F014FE034A92460122019248
:101CB40008E0C04647846B0000FF7F004785EBFFC8
:101CC400B97A140052468A1A92469A129346524698
:101CD4005E46921B9246D4446344E2119A1A924699
:101CE4004246019E5444324390469A109246221131
:101CF400934600190212E244DA4493466918DA441E
:101D04008A445246002A01DC00F05FFC013E3200A6
:101D140056425641E74A76421640E74A92465644AE
:101D24009A128E1BB61A6644F318E2119A1A944654
:101D34004246A444042412012243904662461211EE
:101D4400924660449C10A4190212544492466918A5
:101D540054446418002C01DC00F0B4FDD74A9246C8
:101D64000122019252468A1A92469A129346524688
:101D74005C46121B9246624656449B19D2119A1A2B
:101D840092464246019CD444224390469A1092467D
:101D940062461211934660440212B244DA449346F6
:101DA4006918DA448A445246002A00DCE1E3013C23
:101DB400220054425441BF4A64421440BE4A9246EF
:101DC40054449A120C1BA41A6246A619D411424612
:101DD400F3181C1BA4448A46110162460424121100
:101DE4009046604421439C10A41902124444904636
:101DF400AA4444445444002C01DC00F05DFDAF4A85
:101E040090460122019244465246121B90469A1271
:101E1400934642465C46121B9046624646449B19D2
:101E2400D2119A1A90464C46019AC4440A43029924
:101E340003920A045216121B64462411A046AA44B3
:101E44005244914660449A10921904124244A046A6
:101E540042444A44002A00DC7EE3019A012A01D16B
:101E640000F071FD1422029204329046924A924686
:101E74000122019251464C46641A99128B46210064
:101E84005C46091B8A4661465644F318C911591A1F
:101E94008A469910D4448A46614609118B466044A7
:101EA4000112B244DA448B46A944DA44CA44514686
:101EB400019C002900DC28E3013C621E9441804A15
:101EC400644214407D4A90464A464444141B9A1284
:101ED400A41A6246A6199B19D4111C1BA444624679
:101EE4006044040012119046981080192212404454
:101EF4009046A94440444844002801DC00F0F4FC26
:101F04006E4A0120904642464946891A9A129246E0
:101F14000A005146521A904662464946B044434428
:101F2400D6119E1BB4446E18614609118A46029A62
:101F340064440243920091469A104244211252444E
:101F44008A4652449219002A00DCD8E2012801D1C1
:101F540000F005FD0120584A9912B21A521A904411
:101F640062464344D2119A1A944422004C460443D4
:101F7400A146494689008B46991089466146091154
:101F84008A4662441112C144D1448A46AC19D144F0
:101F9400A1444946002900DCAAE2012801D100F04D
:101FA400DAFC4549012089464946611A8946991255
:101FB4008A4649465646891B89466146C8445E4658
:101FC4004344C911591A89460643B100CC448B468F
:101FD40099108946614609118A4662441112C14426
:101FE400D1448A462C19D144A1444946002900DC35
:101FF40077E2012801D100F0C2FC2F490120894673
:102004004946611A894699128A4649465646891BA9
:1020140089466146C8445E464344C911591A8946F3
:102024000643B100CC448B46991089466146091198
:102034008A4662441112C144D1448A462C19D144BF
:10204400A1444946002900DC44E2012801D100F002
:1020540092FC1949012089464946611A8946991218
:102064008A4649465646891B89466146C8445E46A7
:102074004344C911591A89460643B100CC448B46DE
:1020840099108946614609118A4662441112C14475
:10209400D1448A462C19D144A1444946002900DC84
:1020A40005E2012801D100F062FC034901208946C0
:1020B40008E0C046B97A140047846B0000FF7F0033
:1020C4004785EBFF4946611A894699128A46494673
:1020D4005646891B89466146C8444344C911591A66
:1020E4008946CC44614609118A46A14662449C1043
:1020F4004444111254448A465E46A94454444C4410
:102104000643002C00DCA8E10138441EA041EB4941
:10211400EB4C8A4649464042044054440C1B6146F9
:102124009812241A44441B19C811181A844461468D
:1021340004200911884636010643624498100019A8
:10214400111240448846A94440444844B3460028F8
:1021540001DD00F007FCDB4902208846464649467B
:10216400891B884699128A4641465646891B8846E9
:102174006146A0444344CC111C1BA44461465E4602
:10218400A944C9110191494606436C1831019E10B6
:1021940046448A466146B34662440E1111125E44B7
:1021A4008B465E444E44002E00DC2EE1042651464C
:1021B40031438B46012800D19BE3C248991248441D
:1021C400401A804401994344581A844461460911D1
:1021D4008946624498104044111248448946484450
:1021E4000019002800DCA0E3B449012089464946CF
:1021F400611A894699128A4649465646891B894678
:102204006146C8444344C911591A8946CC446244BE
:102214006146914609118A4649469A104244091278
:1022240052448A465E462C19524412190643002A27
:1022340000DCC0E0013842425041A34A4042104011
:10224400A24A3601924650449A12201A801A4044F7
:102254001A186346DB11D31A9C44614604230911FE
:10226400E144884649461E4393101B18091243440F
:1022740088462C1943441B19B346002B00DD5BE34D
:10228400904B984602234146611A884691128A4629
:1022940041465646891B88464044904662468044DF
:1022A4004146D2118A1A94448A106146E144A246F6
:1022B4000C1149465E46121812190C12AA4412193E
:1022C40052441E43002A4DDD013B5A4253417E4A8B
:1022D4005B421A407D4B55449B4653465A449A1AD6
:1022E40043469B12D21A634612189044DC114346AB
:1022F4001C1B04233001644418434346A14449464B
:102304009B1026119B189B190E129B195B19002B0D
:1023140000DD0EE302266B4B4146EB1A8D125B1B6C
:102324009B187B60E2114344BB609B1A1B19039901
:10233400FB6030434B447E613B6105B0F0BCBB465F
:10234400B246A946A046F0BD5C48FFF7DAFA24225B
:10235400904604320392022E00D134E302265948F7
:10236400FFF7CFFA023B5A425341554A5B421A40A7
:10237400544B55449B4653465A449A1A43469B121F
:10238400D21A634612189044DC1143461C1B0823DE
:102394003001644418434346A14449469B10261126
:1023A4009B189B190E129B195B19002B00DC4FE341
:1023B4000126464BB0E7023842425041424240486F
:1023C400360110403F4A924650449A12201A801A0D
:1023D40040441A186346DB11D31A9C44614608230F
:1023E4000911E144884649461E4393101B180912FB
:1023F400434488462C1943441B19B346002B00DC84
:1024040029E3324B984601233DE7023846427041A6
:102414002C492B4E8B464946404230405844081ABA
:102424009912401A804401994344581A0826514687
:10243400844431438B4661460911894662449810AD
:10244400404411124844894648440019002800DCDD
:10245400A1E21E4901208946C9E60238441EA04172
:102464001B49194C8A4649464042044054440C1BBB
:1024740061469812241A44441B19C811181A84443A
:1024840061460820091188463601064362449810C3
:102494000019111240448846A94440444844B346B4
:1024A400002800DCD0E209490120884656E60228CB
:1024B40000D193E203490220894603E600FF7F002E
:1024C4004785EBFFB97B94FFB97A140047846B000E
:1024D400000180FF022800D17CE2F24902208946F3
:1024E400BAE5022800D171E2EE490220894687E567
:1024F400022800D1A0E2EB490220894654E50228D3
:1025040000D196E20220E74A26E5023C621E94418D
:10251400E54962428A464946E44CA9442240524471
:102524009C128A1A121B961962469B19D2119A1A86
:1025340094446044614604009A10081192191218D8
:10254400201212184A44002A00DC6BE2424602922E
:10255400D74A01209046D6E4019A022A00D159E2D2
:102564002422029204329046CE4A924602220192DA
:1025740080E4023C220054425441CE4A6442144056
:10258400C84A924654449A120C1BA41A6246A619CD
:10259400D4114246F3181C1BA4448A461101624616
:1025A400082412119046604421439C10A41902127D
:1025B40044449046AA4444445444002C00DC23E29E
:1025C400BB4A9046012201921DE4023E320056426B
:1025D4005641B84A76421640B24A924656449A1236
:1025E4008E1BB61A6644F318E2119A1A94464246B0
:1025F400A4440824120122439046624612119246D2
:1026040060449C10A419021254449246691854441C
:102614006418002C00DCF1E1A54A924601220192E3
:10262400FFF7A0FB022252429246D0444646724231
:102634007241524290469F4A924642465646324022
:102644009046984A9246D04442468A1A90469A1234
:10265400924642465646921B9046C4446344E21155
:102664009A1A9046019A444416010822324390462D
:102674002211924620189E10664402125644924635
:10268400691856447618002E00DCB1E1884A924657
:1026940001220192FFF716FB022252429246D044D5
:1026A40046467242724152429046824A924642469D
:1026B4005646324090467B4A9246D04442468A1A55
:1026C40090469A12924642465646921B9046C444FD
:1026D4006344E2119A1A9046019A4444160108226E
:1026E40016439A1090462211924620180212E04492
:1026F400D04492466918D044884442460196002A40
:1027040000DC6FE16A4A924601229046FFF773FAB1
:10271400022252429246D04446467242724152428A
:102724009046644A924642465646324090465D4A36
:102734009246D04442468A1A90469A12924642469B
:102744005646921B9046C4446344E2119A1A90463A
:10275400019A44441601082216439A109046221105
:10276400924620180212E044D04492466918D0449C
:10277400884442460196002A00DC19E14C4A9246FC
:1027840001229046FFF7D8F9023E721E9641474A4D
:1027940076421640444A944652466644961B9A1220
:1027A400B61A30181B18E6119E1B3419424602262D
:1027B400324393469A1094462211904609190A12FC
:1027C4008444C4449046AA44C444D4446246002A7F
:1027D40000DCEAE0364A9446FFF725F9022E00D1E0
:1027E400ECE06246324C9E125444A41B20181B1881
:1027F400D4111C1B64442211944609199E100A1218
:10280400361866449446AA44039A6644564490464D
:102814000191002E00DCB9E0254A01269446FFF719
:10282400B3F8022E00D10BE11E4A02269446FFF7AC
:10283400ABF81C4A924602229046FFF77DF9194AEA
:10284400924602229046FFF718F9164A94466646C5
:102854005246921B94469A12904662464646921BF2
:102864009446524684446344E011181A04196018CB
:10287400A9185A460826120116439A1090462211A6
:102884009246E0440212D0449246D04488444246E0
:102894000196002A00DC82E0054A92460122904615
:1028A400FFF7EBF8B97B94FF000180FFB97A1400BD
:1028B40047846B004785EBFF694A904602220192E8
:1028C400FFF7A1FA664A924602220192FFF74AFAFA
:1028D400634A924602220192FFF7F4F9604A924653
:1028E40002229046FFF787F95D4A02209046FFF7DF
:1028F4000AFB5C499E128A46D1444946891B894693
:102904000199C8444344591A89469910CC448946CC
:10291400614609118A4662441112C144D1448A466F
:10292400D144A144494600292DDC4D490220894661
:102934005DE401264C4BEFE44B4B98460123A2E4A3
:10294400494CFEF7FFFF1332029204329046464A86
:102954009246FFF78FFA44498946FFF725FB424A1E
:10296400FFF7FAFA404901208846FFF7F7FB3E4992
:102974008946FFF7A7FB3C498946FFF76DFB3A49B7
:102984008946FFF73DFB3849894630E4354A02263B
:102994009446FEF7F9FF33490220894627E4314A79
:1029A400924602229046FFF768F82E4A94464EE774
:1029B4002C4A924602229046FFF7BEF8039A294C0D
:1029C4009046FEF7BFFF2748FEF79BFF254989463F
:1029D400FFF716FB23498946FFF73EFB2149894649
:1029E400FFF770FB1F4A924602229046FFF703F955
:1029F4001C4A924602220192FFF764F9194A924650
:102A040002220192FFF7AEF9164A90460222019281
:102A1400FFF7F9F92232029204329046114A9246A3
:102A2400FFF728FA424602920E4A02209046FFF728
:102A34006AFA0C4AFFF790FA0A498946FFF7B4FA92
:102A4400084A9446FEF7A0FFD0460220FFF786FB13
:102A54000226044B60E4034B98460223FFF713FC61
:102A6400B97B94FF000180FF00FF7F00F0B5DE46D4
:102A7400454657464E46E0B5DD4CDE49A5440024A4
:102A8400DD48069404F09AFE012105000A90DA4814
:102A940004F084FE00280BD0192000F077FED02328
:102AA40080221B0692045A62D4485A6100F094FEB4
:102AB4000121D14804F05AFE2100CF4804F06EFEF3
:102AC400A042E9D12100CC4804F050FE062229009E
:102AD4002000FDF747FE0E2229000120FDF742FEEB
:102AE400C74A9369DB04D7D5C64B1360C64B9360C2
:102AF400C64B13619369002BFCDA092005F008F832
:102B04000028C9D10A3005F003F80028C4D10B30DD
:102B140004F0FEFF0028BFD1A025BD4BED05EB5806
:102B240001241F0027402342B6D1093004F0E4FFFA
:102B34000A2004F0E1FF0B2004F0DEFF05F02EFB79
:102B440087238022DB00E850B24B12041A60B24B98
:102B5400B24E1A6813235340DB05B14ADB0D1360F0
:102B6400B04BB14AFA201A60B04A21005A60B04A08
:102B74009C601A61AF4BB04A40001A60AF4A099298
:102B84005A60AF4A9C601A61AE4BAF4A1A60AF4AB2
:102B94005E609C601A6186238022DB009200EA500A
:102BA40002F07AF8AA4B1F210893AA4B3A009846E0
:102BB400A94B079799464D46A84B01979A46A84BAF
:102BC40005970C93A74BA84F0393A84B0294129319
:102BD400A74B1193A74B9B460A9B0B401393089B4F
:102BE4001B78DCB29A4200D1F5E0002C00D14BE115
:102BF40000239946012443464A4664421A60002150
:102C0400181D10325C6102F053FD4B461022002166
:102C1400281D2B606C6102F04BFD002200235146FD
:102C24000A604B60944A0C9B94461B68724C634444
:102C34005A4253410021DBB22000069304F038FFCE
:102C44000121200004F034FF30238C4A0A981360D9
:102C5400D821113B0340F0206350A5392161235052
:102C6400874B616113604A46039B1A7001230493E6
:102C74000293002301930593013307935A4606995F
:102C84001268002900D16EE1EFF3108972B6116861
:102C94000029FCD0BFF35F8F79680B913A7D002A3D
:102CA40000D0BFE13A69FC680D92944200D147E23A
:102CB40000DCB2E1A21A8A1A012A00DCB2E1BB6884
:102CC4003A680E930F92042B00D144E20E9B082B1A
:102CD40000D044E20F9AE300944663441A685B68A8
:102CE400149215930B9B01341B1B5A1E93415B4298
:102CF4001C405B461B68FC6010930D9BA34200D1F3
:102D0400BDE10E9B042B00D11FE20E9B082B00D0CB
:102D14002FE20F9A51469446E30063441A685B68B5
:102D24000A604B600B9B01341B1B5A1E93415B4290
:102D34001C400D9BFC60A34200D1A0E1BFF35F8F58
:102D44000023109A136089F3108801F09BFF534607
:102D54000CCB99461499159C3368002BFCD00023A6
:102D64003360099B40461B68FDF754FD169017918C
:102D74003368002BFCD000233360099B4A462100B2
:102D840028001B68FDF746FD18901991049B002B41
:102D940004D1019B059A934200D16BE18623019CE7
:102DA4009B002001C01814AB9C46364B60449C46E3
:102DB4001022604416A902F081FC631C0193202BAD
:102DC40000D154E1002301220293089B1B78DCB25A
:102DD4009A4200D009E7039B1B78002B6ED0002A8F
:102DE40000D04FE1039B1A7001F04CFF0022F6E67D
:102DF40094FDFFFFA091002000002050508F002080
:102E040000000640A7BFFA0077779696A10A000053
:102E1400340400005022005034040050BCF500205B
:102E240034140050400200501C000640C0F500203D
:102E340009D0BF008002005038040050C4F50020BF
:102E440009D83F00C00200504496002009C83F0042
:102E540004FC00201CE8002034E80020E098002056
:102E6400B0F5002005FC002084F5002020E80020B7
:102E740038E800209CF500200089FEFF0020205047
:102E84000303000000FEFFFFCC4B012299461B68A0
:102E9400002193434A4648461360002204F010FD83
:102EA4004B4602221B68012193434A46484613605D
:102EB400002204F005FD039B1C7095E7002C93D0C1
:102EC400029B0493079B002B00D05FE1BB4BDA68A5
:102ED4000F231340062B35D8A146029B059C07956A
:102EE400002B00D0BCE0862321019B00C91814AB41
:102EF4009C46B34B61449C4610226144013416A89D
:102F040002F0DCFB2300203B5A1E93415B421C4031
:102F1400019B1898E31A5A425341199ADBB294461A
:102F24006546A64A55615061179D16981561106152
:102F3400D0680F220240062AD2D905944C46079D38
:102F4400029304930499002900D01CE1059B019A83
:102F5400934200D190E05A460791069901231268E2
:102F6400002900D090E6EFF3108972B611680029A9
:102F7400FCD0BFF35F8F3A7D002A42D1BA6839682A
:102F8400FC68042A00D1CFE0082A00D0D1E0E30095
:102F9400C9180A684B6851460A604B607B68013463
:102FA400E31A5A1E93415B421C405B463A691B6814
:102FB400FC60A24201D101223A75BFF35F8F002267
:102FC4001A6089F3108801F05DFE534612CB336812
:102FD400002BFCD000233360099B40461A68FEF79F
:102FE40061FC169017913368002BFCD000233360EA
:102FF400099B210028001A68FEF754FC18901991C7
:10300400C4E659460968BFF35F8F0020086089F35E
:103014001088002B00D0E2E5D7E70D9A121B012A95
:1030240000D04CE65A461268BFF35F8F002111604E
:1030340089F31088069A002B00D0D0E5534612CBB2
:103044003368002BFCD000233360099B40461A6888
:10305400FEF728FC169017913368002BFCD0C5E7C7
:10306400029304930023079D0594079306E6002327
:10307400019302930122B2E522000791AFE50123F7
:103084003B755BE601224D4C2368200093430022EC
:103094002360110004F014FC0222236801219343ED
:1030A40020000022236004F00BFC002399464346D1
:1030B4004A461A60012342465B4253614946102244
:1030C400129802F0F5FA4A46012349465B422A6007
:1030D400119810326B6102F0EBFA00220023514682
:1030E4000A604B60374A0C9B94461B68494663440C
:1030F4005A4253412000DBB2069304F0D9FC01216B
:10310400200004F0D5FC3022F0212F4B13981A60D4
:10311400A832A050A53A2261605062612B4A1A601D
:103124004A46039B1A70A1E55246A3005B581360FC
:1031340034E7130063435046C91802F0BFFA2DE781
:103144000B9A012A00DDBAE56CE70F9AA3009B589D
:1031540052461360E6E5A3009B581493C2E50E9A09
:103164000F9B11009C46614314A8614402F0A6FA27
:10317400B8E50E9A0F9B11009C466143504661448A
:1031840002F09CFACEE50023079377E5029B002B1F
:1031940005D1059B019A934205D001236EE5029B5C
:1031A400079301236AE50F22044BDB681340062BC7
:1031B40000D891E6029B079A079310E5000020507F
:1031C40000FEFFFF0089FEFF0020205003030000E3
:1031D40010B5172000F0DAFAD024802324061B044B
:1031E4000421636202226361164801F01DFC164B40
:1031F400164A01201A60802212015A6008229A603D
:1032040000221A61DA6001321A7500F09BFB00F0AB
:10321400B9FB0F4B1860042000F0B8FA052000F049
:10322400B5FA10236362103363620021042000F0B6
:103234009BFA0021042000F097FA064804F0BCFC35
:1032440010BDC04600808D5B84F50020F0980020FE
:103254009CF500209D2800200122024B1860024B9F
:103264001A707047B0F5002004FC00200D4B186064
:103274000D480268EFF3108C72B61368002BFCD073
:10328400BFF35F8F00220121084B1A61DA601975C0
:103294000368BFF35F8F1A608CF31088044B1970B6
:1032A4007047C046B0F500209CF5002084F500204E
:1032B40005FC002000220E4B10B50E491A700E4B6F
:1032C40001321A700A68EFF3108072B61368002B8B
:1032D400FCD0BFF35F8F00220124084B1A61DA602F
:1032E4001C750B68BFF35F8F1A6080F3108810BDE4
:1032F40004FC00209CF5002005FC002084F500203F
:103304000C480268EFF3108C72B61368002BFCD0E3
:10331400BFF35F8F00220121074B1A61DA60197530
:103324000368BFF35F8F1A608CF31088034B197026
:103334007047C0469CF5002084F5002005FC002061
:10334400F0B55746DE464E464546E0B593B00C927E
:10335400C64A0F0012780A900891002A00D194E01E
:103364001C9C0022985E0222995E04229A5E2478B4
:10337400091812184B42504264B2DB11C011002CE0
:1033840000D18AE0012290460492002F00DC69E11A
:10339400B74A9B0094469C4461460E91B54980000F
:1033A4008C469C44644684460092624411920A9A74
:1033B400C3460D9200220892AF4AB8460992AF4A1A
:1033C40001919146AE4A614417000F940790109101
:1033D4000B934346029380235B00984500DD0293E0
:1033E4000C9B042B00D18DE0049B002B00D1CAE080
:1033F4005B46002B00D10FE10998029A0300D1002B
:1034040042180024002530C39342FAD10A9B9C46FB
:103414008C4463460A934B461A681368002BFCD00D
:10342400BFF35F8F3A7D002A53D07D6838692E0040
:10343400029B1C00AB4200DD2C00BA68361A5043D4
:103444003B681818B4424EDC6243099902F036F91D
:1034540000223B693A757A68E3183B61934201DBC9
:103464009B1A3B614B461B68BFF35F8F00221A60B7
:10347400089B9C46A44463460893029BAB4204DC2D
:1034840043461B1B9846002BA3DC089813B0F0BCE2
:10349400BB46B246A946A046F0BD01251C9C049536
:1034A400647864B2002C05D1764D0134A94200DB66
:1034B4000024049401241C99A046897849B2002967
:1034C40000D062E76F4C0131A24200DB0021884644
:1034D4005BE7FD683869854200D197E07E6800DCCF
:1034E40091E02D1AA4E7099B72439A46190002F051
:1034F400E5F8B968A21B4A4371433868514402F0A5
:10350400DDF8A5E7BA46029B0D9C9B00E318099DD4
:103514000393049B00262768002B0ED13BB25A006C
:10352400D218130101999B1A0B9A9B00885858438F
:10353400009B995801F08AFD06005B46002B17D1C9
:103544003F147A00D219130101999B1A079A9B0020
:10355400885804345843009B995801F077FD039B25
:103564002E6068600835A342D3D157460D9352E7C5
:1035740000236B60039B04342E600835A342C8D13A
:1035840057460D9347E70E9B0A9C1B68099D0693BB
:103594000F9B1B680593029BDB009A46A24422689A
:1035A40063681212039353009B181801C01A059BF9
:1035B40080115843069901F049FD5B460600002B33
:1035C40017D1039B01991B125A00D21813019B1A9D
:1035D400079A9B11885808345843009B995801F066
:1035E40035FD2E6068600835A245D8D153460A934C
:1035F40011E70023083428606B600835A245CED15A
:1036040053460A9307E7451B751B11E74B461B6896
:10361400BFF35F8F1A6038E7119B0A9C1B68099DF2
:103624009A46109B1B680393029BDE003B00A6197D
:10363400370056469A4662683100121253009B18AE
:103644001801C01A039B8011584301F0FFFC0023AA
:10365400083468602B600835A742ECD13E00574619
:103664000A96D8E6002308930FE7C04604FC00201E
:10367400D091002060930020F0D800209CF5002019
:1036840084F5002001CEFFFF204930B50A68EFF32E
:10369400108072B61368002BFCD0BFF35F8F1C4BF5
:1036A4001A7D5D68002A1CD1DA681B692C009A42D5
:1036B40002D09C1A9A4211DC0B68BFF35F8F002280
:1036C4001A6080F31088D0231B061E2C19D91032DF
:1036D4005A61D02320221B069A6130BDD21AAC1A3B
:1036E400EAE70B68BFF35F8F00221A6080F310884B
:1036F400D02310321B069A61D02320221B065A6164
:10370400EBE710229A61002CE3D1F5E79CF5002049
:1037140084F50020094A83009A1810B514684022E1
:10372400544080322240064CC000A44663441A60D0
:10373400044B9C466044416010BDC04604C0014037
:1037440004D0014000400140054B8000C3181B68B1
:103754004B4001211940034B9C4660440160704773
:1037640004C0014004D00140064B8000C3181B680C
:10377400054A090159409446302360440B400360D4
:103784007047C04604C0014004D001400123D02248
:103794008340120693629361094A83009A18116860
:1037A4004022514080320A400649C0008C4663449E
:1037B4001A60054B9C460523604443607047C0462D
:1037C40004C0014004D00140004001408023DB05D7
:1037D4001868000F7047C0460FB400B5084883B09E
:1037E40002F0E4F8049B002B07D005A9180001910E
:1037F40001F072FF034802F0D9F8012001F084FFC0
:10380400608F0020708F0020EFF3108072B6034A9F
:103814001368002BFCD0BFF35F8F70472C0100D0DE
:10382400BFF35F8F0022024B1A6080F31088704749
:103834002C0100D0CB08C25C072301200B40984028
:103844001040431E9841C0B27047C04670B5EFF3B4
:10385400108C72B60D4D2B68002BFCD0BFF35F8F1C
:103864000724CB08C618C05C01230C40A3401C00ED
:103874000440034207D118433070BFF35F8F2C60BC
:103884008CF3108870BD1000FFF7A6FF2C0100D048
:10389400F8B54746CE46884680B5EFF3108C72B62D
:1038A400214D2C68002CFCD0BFF35F8F9A422CD89A
:1038B400D4080727055D061901241740BC402C4293
:1038C4001FD007210127894609E0D408055D0619A0
:1038D4004C4639001440A1400C00294211D0013259
:1038E4009342F2D201204042BFF35F8F00220E4B7D
:1038F4001A608CF3108800280FDBC0BCB946B046B0
:10390400F8BD254310003570EEE7BFF35F8F002349
:103914002B608CF31088012040424346002BECD0EE
:103924000898FFF759FFC0462C0100D0044A1078CC
:10393400431CDBB2172B00D9102313707047C04609
:103944004896002010B5064B064C82B00100009347
:1039540018221F232000FFF79BFF02B010BDC046B2
:10396400748F0020A4E700200021044B044ABFF315
:103974005F8F02C39342FAD17047C046000100D062
:10398400800100D0044B9C4660448000BFF35F8FED
:10399400002303607047C04640000034054B064ACC
:1039A4001360064A136053609360D36013615361DC
:1039B400936170478080808000E400E004E400E0CC
:1039C4001F2318401E3B8340002905D0C021044A10
:1039D4004900535013607047802201498B50FAE725
:1039E40000E100E001228240034B1B6813405A1E91
:1039F4009341D8B27047C04600E100E070B50D00B5
:103A0400EFF3108672B60F4A1368002BFCD0BFF395
:103A14005F8F0D4B10309B6884001B590B4A9342F7
:103A240003D09D4201D001F0D3F9074B9B681D518F
:103A3400BFF35F8FBFF35F8F0022024B1A6086F3E0
:103A4400108870BD240100D000ED00E0C101001019
:103A5400F0B557464E46DE464546E0B585B006000D
:103A640000911700EFF3108B72B66A4A1368002BAB
:103A7400FCD0BFF35F8F0025674B5D579A46002D3E
:103A840000DAA9E06B00654C01935B199B00984632
:103A9400A146C1444B4652469B7910361370604B85
:103AA400B6009B6899590B1B2F2B33D95D4B994258
:103AB40000D0ACE0019B42469C465B4B6544AD00A4
:103AC40063535A4B0232A218043B9B1A1B05584AF3
:103AD4005B0D651913436B80564B0121AB80FF23AB
:103AE400AB71009BEF71AB604B460B4319004C4B21
:103AF4009B689951BFF35F8FBFF35F8F0022454BE3
:103B04001A608BF3108805B0F0BCBB46B246A946D8
:103B1400A046F0BD01200A008243D3798C46BB4203
:103B240031D84546130044491B1B5B415943090DD9
:103B34003D4B63533D4B02356519043B5B1B1B0531
:103B44003B4D5B0D2B43AA464D466B800425AC468A
:103B54005546E044131F44441B1B1B055B0D1D43CA
:103B64004B46997100999D8099604946DF71334BAA
:103B740001431360BBE75800C01880002018C179C6
:103B8400B9422FD902000623D356002BF3DA02934D
:103B94002B4B61460393131D9A4604235B429C46B8
:103BA400E14450464B461B1A1B055B0D9C46204BBB
:103BB400957198466346404603439380019B5A1986
:103BC4009200039BA418A380029B1C4AA371009B30
:103BD4002260E771A3608AE701F0FAF800255346F2
:103BE4005D574FE7908802934005131D9A460315CD
:103BF40061469C464046D444634604302018181A53
:103C0400E0230005400D1B0218430390C5E701F0B3
:103C1400DFF84FE7240100D003FC00204C9600207D
:103C240000ED00E0C101001000A1FFFF7C96002020
:103C340000E0FFFF01BDFFFFAAAA00000148804782
:103C440001BD0000F0B5DE4657464E464546E0B598
:103C54000C0083B0EFF3108872B6634A1368002B2C
:103C6400FCD0BFF35F8F614B61499A680300103346
:103C74009F00D55900938D4243D0A54254D05D4E48
:103C8400AA1B2F2A3DD85C4B9C461B689A460123ED
:103C94001A0099468240534613401F2201934B4613
:103CA400024093409A468022634650469850BFF3A0
:103CB4005F8FEFF305839B46002B37D0009B5B455A
:103CC40001D001F085F82A004B469A43906884425B
:103CD40008D177E04B005B189B00F3189868844286
:103CE40036D01A00062151560029F3DA844255D001
:103CF400019B002B27D0C02251463F4B52009950C4
:103D040019603A4B9B68DD51BFF35F8FBFF35F8F40
:103D14000022354B1A6088F3108803B0F0BCBB4610
:103D2400B246A946A046F0BD0D00EAE72A004B467C
:103D34009A4390688442D5D1062010561300002877
:103D44000ADA0D0032E0802351462B4AD150D8E7DD
:103D540006201856002822DB420011188900741826
:103D64008946A1689960E179D971062161569971F2
:103D7400002925DBA488F11A640524154C4409198B
:103D8400E0240905490D24022143998013181B4A94
:103D94009B001178F31899711070A9E71300594624
:103DA400002914D1FF3191711549918013490A7882
:103DB4009A71144A9B1B5B415A43120D0A7097E790
:103DC4001149E2E70620105613000028C4DA0F4A0E
:103DD4000F49D21A083A5002400D014399800D4907
:103DE40052080A43DA8083E7240100D000ED00E0A2
:103DF400C10100104C96002000E100E003FC00200B
:103E040001BDFFFFAAAA000001BD000086960020A4
:103E140000F0FFFF00F8FFFF70B501240443EFF347
:103E24000581EFF3108C72B6214A1368002BFCD085
:103E3400BFF35F8F1F4B05001F4AED1A6D416A43A4
:103E4400120D1E4D8900AE6852B27658A6421CD09F
:103E54000621595691421CD012215956914222D022
:103E64001E215956914220D02A21595603249142A9
:103E740010D0134B19781A708171BFF35F8F002231
:103E84000B4B1A608CF3108870BDAB680D4C5C5002
:103E9400EFE700246100091989005B18FF2199717B
:103EA40009499980E5E70124F4E70224F2E7C046D2
:103EB400240100D04C960020AAAA000000ED00E0E6
:103EC40003FC0020C101001001BDFFFF024B9C4612
:103ED40061448900016070474000003470B5114CA2
:103EE400114DAC420FD2FF262368002B0CD0FFF7F4
:103EF4001DFD01002000FFF7E9FFA680BFF35F8FDF
:103F04000834AC42F0D370BDFFF710FD010020006F
:103F1400FFF7DCFF2671BFF35F8F0834AC42E3D3B5
:103F2400F1E7C046089700201897002010B5040058
:103F3400FFF7FCFC01002000FFF7C8FFFF232371FB
:103F4400BFF35F8F10BDC04610B504000120FFF71A
:103F5400F9FC034BC3189B002360BFF35F8F10BDB4
:103F6400400000340A4B1968EFF3108072B60A68F7
:103F7400002AFCD0BFF35F8F1B68BFF35F8F002262
:103F84001A6080F3108840BF002000217047C046AB
:103F9400CCF50020F0B5DE4657464E464546E0B522
:103FA40083B0EFF3058203231340B54A99005258B6
:103FB4000091904601229A409346B24B1A60B24B4C
:103FC40001935B46B1484363434608229B5E99468E
:103FD400002B3ADA43469B881BB2002B00DB9DE0A2
:103FE40043469B79002B00D0E1E0434608241C5F44
:103FF400002C20DB43465A6963001B19DB00D318ED
:104004009D68DC686B1C00D103E1A04800998446DC
:104014006144826A0B69AE1A9B1A9E4213D35A46B4
:10402400036A1A420FD0994800F024FB8C4202DC48
:10403400C7D18542C5D940BF03B0F0BCBB46B24628
:10404400A946A046F0BD0D61EDE7424652695B000A
:1040540092464B44DB009A4453469E68DF6800F066
:1040640009FB8F42B6DC00D1F8E0002F00DAD9E07A
:104074005246534654691B69019A934200D1CCE0DD
:10408400414652460820085E52880004210010432D
:10409400984704000D0023002B4300D1C2E0002DFB
:1040A40000DBDFE030003900001BA9415346986073
:1040B400D96000229A5E002A00DA8BE743465D69E4
:1040C40053009C18E4002C19A768E4688C4200DDB6
:1040D40080E702D1874200D97CE746463281083620
:1040E4000DE08C4200D1C6E01E000023F25E002ADF
:1040F4000ADB53009C18E4002C19A768E4689B1899
:10410400DB00EB188C42ECDD53461A804B463380BF
:1041140043469B881BB2002B00DA61E743461A69C9
:10412400EFF3108172B61368002BFCD0BFF35F8FDE
:1041340043469E88012342465B42938036B213690C
:10414400BFF35F8F00221A6081F31088002E00DA1B
:1041540046E743465D69083342469C467700BF19EB
:10416400FF00EF19BB68604698460823D15E92466B
:10417400FC68002907DA0EE0A24246D018000023AA
:10418400C15E002906DB4B005B18DB00EB18DA6824
:10419400A242F1DD524606800023FE5E3980002EE5
:1041A400DCDA904643469B79002B00D11DE70023BF
:1041B40042469371434646460821595E08364B1CD5
:1041C40000D138E747468946556902E006004B1C92
:1041D40018D04B005B18DB00E8180A008C46E95E37
:1041E40043881BB2002BF1DA01235B42DC178360A6
:1041F400C4604A4503D031803B8903803A81E1465B
:104204004B1CE6D1B8464C46F2E69A684245B5D90D
:10421400C0E7631C00D0F8E605E72000236998474F
:10422400002825D1534642461B8813811269EFF3B7
:10423400108372B611680029FCD0BFF35F8F424629
:10424400514652880A804246494651801269BFF35A
:104254005F8F0021116083F31088BBE6864200D88B
:1042640003E7B7E6094800F005FA001969411DE7BC
:10427400656824680FE7874200D835E744E7C046FD
:10428400A0F500203C700540C53D002000400540DD
:1042940070B52E4C2569002D04D00A212C48FFF757
:1042A40015FE70BD2B4E0321300000F0D9F9E660F5
:1042B400FFF73CFB284B03229C46D02322701B06AD
:1042C4001B6801216370254B6044A3600F238000A9
:1042D40020610220638063694942A1801980023110
:1042E400198647311D83585218315A5275325C3938
:1042F40099521832013199521832013199521832B7
:1043040001319952083518329D52023118329952AE
:10431400183201319952183201319952183201314F
:1043240099521832013199521832013199520C4B79
:104334000C49DC6001303562FFF760FB012103208A
:10434400FFF73EFB084B1D60A7E7C046949600208C
:10435400CCF500200040054040000034FFFF100071
:10436400A0F50020C53D00203860054070B501006F
:104374000469EFF3108C72B620680028FCD0BFF3F8
:104384005F8F02200D5E4C6968004019C00024183C
:10439400002D37DB208848800869BFF35F8F002633
:1043A40006608CF31088E36063880498013320610D
:1043B4005B0405985B0CA26060611A1C002B1FD083
:1043C40093B22804628018430A69EFF3108C72B622
:1043D4001368002BFCD0BFF35F8F8B8823808D8004
:1043E4000B69BFF35F8F00221A608CF310880B787F
:1043F40001329A40CB6808498C4663441A6070BD08
:104404000122DDE70B69BFF35F8F00221A608CF392
:10441400108801204042F2E73C20000010B5438997
:104424000A1493421ADD53009B184269DB00D31827
:104434000469EFF3108C72B62268002AFCD0BFF333
:104444005F8F5A88090494B2090C8A4208D0036920
:10445400BFF35F8F00221A608CF31088002010BD18
:104464008022120214435C80012302698371BFF32A
:104474005F8F002111608CF31088044902788C4608
:104484009340C268012062441360E8E73C200000C6
:10449400F0B504000D0006267642F717C646361915
:1044A4006F4100B582B08F4214D811D000F0EAF801
:1044B40032003B00121A8B41002B17DC002B47D033
:1044C4002000290000F01CF902B080BCB846F0BD01
:1044D4008642EBD90022002316001F0000F0D2F818
:1044E40032003B00121A8B41002BE7DD00F0CAF8C2
:1044F40032003B00121A8B41002B0ADB002301938C
:10450400154B3200009315483B00FFF72FFF00289E
:10451400D6DB00239C46B046114A124E736A9F4272
:1045240004D8B16A8845CBD99F42C9D11168EFF349
:10453400108072B60B68002BFCD0BFF35F8F13683A
:10454400BFF35F8F6146196080F3108820BFE5E7F1
:10455400002AB5D0CAE7C046953D002094960020B5
:10456400CCF5002000400540F0B5D6464F464646FF
:10457400C0B504000D0082B0EFF305878946002F13
:104584000ED0344900204B6AAB4203D38A6A01300F
:10459400A24226D302B0E0BCBA46B146A846F0BD5A
:1045A4002D4B9846DB689A46434650461E7800F0E9
:1045B40061F80B00514602000436B6007158200021
:1045C4008E1A2900801A99418F4211DC0ED020BF27
:1045D400204A0020536A4B45DCD3926A0130A24240
:1045E400D8D25B1B5A1E9341D8B2D3E78642EED988
:1045F40000F048F822002B00121A8B41002B1ADB22
:1046040000230193154B2200009340462B00FFF733
:10461400ADFE011E0FDD0F4B5A6A4A4517D39B6A44
:10462400A34212D34046FFF7F9FE0A4A0020536A18
:104634004B45AFD3D1E7074A0020536A4B45A9D372
:10464400926A0120A242A5D2CBE74A45EAD120BF13
:10465400E8E7C0460040054094960020953D0020C0
:1046640010B5024A0248FFF7F1F810BD908F002000
:10467400A8E700200300416A0A00986A596A8A423E
:10468400FAD17047034B596A0A00986A596A9142F1
:10469400FAD170470040054070B504000D00174A78
:1046A400536A1900966A536A8B42FAD13000190092
:1046B40024184D41AB4216D813D0104A2B00526A2D
:1046C400954203D90D494A6A9A42FCD39A4207D1CA
:1046D4000A4A02E0516A994202D1916AA142F9D38D
:1046E40070BDA642E9D9054B5B6A1C005A1CEFD089
:1046F400012301246442E5175B42E3E700400540DF
:10470400064A536A9942FCD807D1044B02E05A6A1C
:10471400914202D19A6A8242F9D37047004005401F
:10472400F8B5040006200D0000F078F9002844D004
:10473400374B3849E3185A1E934180221204944699
:104744005B429B0D344A9B0563441360334A1360F8
:1047540018000A689043FBD12D4B314AE3185942A3
:104764004B4180215B0049000620995200F056F924
:104774002900C00000F092FC0130C3091ED140277B
:1047840001226262A362266BF30722D4E36A254BFB
:104794000620E51800232B60266300F03FF939005A
:1047A400800000F07BFC7023E26A5A400E33134011
:1047B4002B601D4B23630323A364F8BD1B4A934260
:1047C4001ED900231A4A1B4F6262A362266BF307A9
:1047D400DCD5194B144AE3181A60656AA36A0620EB
:1047E400AD01ED1800F01AF9144900F057FCAD02C0
:1047F4000100280000F052FC0021FFF74DFFC5E73F
:104804004006800E9F011A003F180300B9E7C04616
:104814000080FCBF08C0004000E0004000F0004001
:10482400E8FB00202C10000001030000FEFF000044
:10483400FFFF0000C0FF3F00303000004E0E0000BC
:10484400F8B5DE464E4657464546E0B58B4605006C
:104854000A991800160000F021FC0A9B6C001F0244
:10486400324B64199C46A4006444636881469F42A9
:1048740000D967602B1FDBB29846012B30D9C023C7
:1048840080229B01E31812011A60294BAD0059598B
:104894009A4600291BD17301E026226853401E402A
:1048A400802342465B01E3181E60012A30D980232D
:1048B40080229B01E31812011A6053464A4667603E
:1048C4005A51F0BCBB46B246A946A046F8BD586949
:1048D40000F0E4FB013043001B18033BFDD2DAE790
:1048E4005B46012BCBD1C02303229B01E3181A6042
:1048F400023AA3681A42FCD07301E0262268AD0094
:1049040053401E4080230A4A5B019246E3181E600E
:104914005A462168514003220A401A6001225B462C
:104924009A40A3681A42FCD0C1E7C0460080004008
:10493400B0E70020F0B546464F46D646C0B51F0046
:10494400344B44009C462418A4006444636888469D
:104954001600FF2B02D880235B006360031FDBB2C9
:104964009A46012B30D9C02380229B01E3181201FF
:104974001A60294B85005959994600291BD17301A6
:10498400E026226853401E40802352465B01E31810
:104994001E60012A30D9802380229B01E318120172
:1049A4001A6080235B0063604B465F51E0BCBA46EB
:1049B400B146A846F0BD586900F070FB01304300D1
:1049C4001B18033BFDD2DAE74346012BCBD1C023AE
:1049D40003229B01E3181A60023AA3681A42FCD02E
:1049E4007301E0262268850053401E4080230A4A52
:1049F4005B019146E3181E60424621685140032240
:104A04000A401A60012342469340A2681342FCD034
:104A1400C1E7C04600800040B0E70020014B8000A1
:104A2400C0587047B0E70020F0B54746CE4680B581
:104A34005B4B15005A680700884683B0FF2A02D8EA
:104A4400802252005A600322564B554E1A600123AD
:104A5400B4682342FCD0202231685140C0320A405D
:104A640051490A6032684E4E5A40032313400B608A
:104A74000223B4682342FCD080224C4B12011A60FA
:104A840080235B0073604A4C99464A4B3A00636149
:104A9400012143464848009500F0A2F841463800F9
:104AA400694300F0FBFA454B05005A68FF2A01D818
:104AB4004A465A608022424B12011A602169002939
:104AC40007D0606900F0EAFA013043001B18033B89
:104AD400FDD2E022394B3B4819680A4002600222A9
:104AE4001968514001320A40042102609A68114257
:104AF400FCD08021344A09011160802252005A609E
:104B0400324B2361264B5968FF2900D85A6003228F
:104B14000121244B1A60224A93681942FCD0E023F5
:104B24001068034020480360126803234A400221AE
:104B340013401B4A036093681942FCD080211B4B2D
:104B4400090119608021224B4900516065615A684E
:104B5400FF2A00D8596080221E4B12011A60A169F5
:104B6400002907D0606900F099FA013043001B184E
:104B7400033BFDD2402316490A685A40A033134030
:104B8400154A13608022154B12011A6080235B00C2
:104B94004B60084BA36103B0C0BCB946B046F0BD3E
:104BA4003C8000403CB000403C9000403CA00040B1
:104BB400B0E70020006CDC0200800240308000403E
:104BC40030B000403090004030A00040001BB700DF
:104BD4004880004048B000404890004048A0004051
:104BE400F8B5040021481E0017000D0000F056FA25
:104BF4000100380000F052FA069B36041B031E43E2
:104C04002368002B20DB1A4B1A49E3185A1E9341E0
:104C14008022920194465B421B0B174A1B03634498
:104C24001360164A13601F000A689743FBD1144BA4
:104C34002560E2182123A06013602368002BFCDAAE
:104C44000823E6601360F8BD3F2322681340AB429B
:104C5400D9D1A3681B051B0D8342D4D1EE22E3688E
:104C6400D2021340B342CED1EDE7C046001BB700D9
:104C74000040FDBF08C0004000E0004000F00040DC
:104C840004300000024B1A68024B5A607047C04659
:104C940078F5002000800540194B1A4A10B5DA61F6
:104CA4008022194BD2051A60184C194A1460002945
:104CB4000AD0E022174BD2041A60002809D18022BE
:104CC400144B12061A6010BDE022D2041A600028A8
:104CD400F5D043011B1A9B001818802300015B04C4
:104CE400984209D203000C4A13608022044BD20577
:104CF4005860084B1A60E6E7084B1800F3E7C04613
:104D0400008005402131B76A00B00540FCFF010076
:104D14000820014000A0054078F50020FFFFFF00B7
:104D2400024B9868431E9841C0B27047008005400A
:104D34008023024A9B000B43D362704700800540E6
:104D4400142310B50100188804331B88984710BD3C
:104D5400162310B50100188802331B88984710BD2C
:104D6400F8B54746CE4680B50F1E19D01423994690
:104D7400043304000025012698464B461888434610
:104D840021681B88984701C4431E9841013540425D
:104D94000640AF42F1D13000C0BCB946B046F8BDC0
:104DA4000126F8E7AA23064A1B0113608D235B0042
:104DB400D3600449044B19605368002BFCDA704734
:104DC4000040024000B0FA00006002407047C04654
:104DD40010B50148FEF700FDB48F002070B5074DF3
:104DE400074EB54209D20024013E761BB60808CD11
:104DF400984723000134B342F9D170BD18970020BD
:104E04005497002070B5074D074EB54209D20024CF
:104E1400013E761BB60808CD984723000134B342FF
:104E2400F9D170BD4C97002054970020054B064AD9
:104E340006491A60064A074B1A6010000B6898432B
:104E4400FBD1704700E00040BFCDFBFE08C000402E
:104E5400FE7F3C0000F00040044BDB6C002B03D1D0
:104E64008022034BD2021A607047C04600001150E2
:104E74004C201150044A054B1A60054A1368DB01A3
:104E84008033FBD17047C046FFFFFF0100F00040B4
:104E940008C000404022034B9A675A671A67DA66D3
:104EA4007047C04600F0014010B5FEF75DFD10BD2F
:104EB400F8B52749274C284D641AA6103200302E25
:104EC40000D930222800920000F0F8FBBC2C3BD81B
:104ED40030202F232C196407204A801BE40F9B1BCE
:104EE400052B16D93700002C02D0B300771CEA50EA
:104EF400001B33199B004108EB18C900C9181A603C
:104F04005A6008339942FAD1012303421CD09843D2
:104F1400C619B300EA50731C2F2E15D09B00EA501B
:104F2400B31C2E2E10D09B00EA50F31C2D2E0BD058
:104F34009B00EA50331D2C2E06D09B00EA50731DB3
:104F44002B2E01D09B00EA50054B9D60F8BDC04656
:104F540000010010C001001000000020C101001079
:104F640000ED00E0002310B5294C82B0A367FFF7E1
:104F740019FF0122274B1A60636C012BFCD1032219
:104F8400254B1A60224A936B012BFCD10133009309
:104F94000121224A22480433FFF722FE052301217E
:104FA4000093204A2048FFF71BFE00220221042020
:104FB4001E4BFFF7BFFC0022012105201C4BFFF70D
:104FC400B9FC0022002107201A4BFFF7B3FC002292
:104FD40000210820174BFFF7ADFC8023DB00009372
:104FE400002200210920134BFFF72AFC0022104B5A
:104FF40000210620FFF79EFC0420FFF70FFD0E4959
:1050040000F04CF801000020FFF792FE02B010BD42
:10501400008000403CB0004030B00040002F685990
:1050240000800240008C864700C00240001BB7008D
:1050340040597307006CDC0240420F000148042110
:10504400014B1847B0960020914B0020124A936FF1
:105054009B0815D29066D166002905D0FFE7FFE7CB
:10506400FFE7516F106F704704B580210906C2171E
:105074005140002800D0C84303F094F8002104BD37
:10508400F0B5146E556E576F166FFFF7E3FF146695
:10509400556657671667F0BD000000D0114A936F3C
:1050A4009B0813D210665166002905D0FFE7FFE77D
:1050B400FFE7516F106F704704B5002801D000203E
:1050C400C04303F06FF8002104BDC046F0B5146E70
:1050D400556E576F166FFFF7E5FF146655665767F1
:1050E4001667F0BD000000D094464A4A926F9208B9
:1050F400624601D228E0C046F0B5464E346E756E65
:10510400776F366F00F020F89446424A146655666D
:10511400576716676246F0BD94463E4A926F9208FE
:10512400624601D254E0C046F0B53A4E346E756E14
:10513400776F366F00F04CF89446364A146655661D
:10514400576716676246F0BD002B24DB11D0002997
:105154003EDA00B5C943404200D1013100F038F8CD
:10516400C943404200D10131DB43524200D10133F3
:1051740000BD002AEBD1002801D1002905D0002070
:10518400C90FC90701D1C043410800B503F00AF8AB
:105194000022002300BD00B500290ADBDB43524294
:1051A40000D1013300F014F8C943404200D1013169
:1051B40000BDC943404200D10131DB43524200D11A
:1051C400013300F005F8DB43524200D1013300BD46
:1051D400002923D1002B18D1002A0CD0BC460D4F36
:1051E40038667A6600210023FFE7FFE7FFE77A6F5E
:1051F400386F67467047002801D00748010000B5A2
:1052040002F0D0FF0022002300BD02000B000020AA
:1052140000217047000000D0FFFFFFFF002B00D0EB
:10522400BFE0130C28D1002AE7D080B4114F3966AF
:105234007A66FFE7FFE730B4040C7B6F396F1B0419
:1052440023433B667A66FFE7FFE7FFE7C04684B285
:105254007B6F3D6F1B0423433B667A66FFE7FFE7E2
:10526400C04600232C042D0C7A6F386F0019694155
:10527400B0BC7047000000D0F0B594460025140E71
:1052840001D112020835140F01D112010435940F13
:1052940001D192000235D40F01D152000135D40B53
:1052A4000134254F7C66254C3C660E0C93B2FFE717
:1052B400FFE7FFE73C6F6643360C7703BE46734354
:1052C400DF0B5B04C01AB941130C7343DB18C91A12
:1052D400CE086643360CB64493B273431F0F1B01CA
:1052E400C01AB941130C73431F0B1B05C01AB941F3
:1052F400860D8F023E436643360C092D24DB520A89
:105304007243801A7703460A6643360C16235B1BE6
:10531400DE40DF40BF1964466643821B7046043595
:1053240006330100D940A840C01900D30131A2427C
:1053340006D20023F0BD0000000000D0FFFFFFFFF5
:10534400121B0130F3D3F1E709277F1BFE406446AB
:10535400A2B27243801A00D20139220C7243130C98
:105364001204821A99410B00704604351337010068
:10537400F940A840801900D30131002B02D1A24288
:105384000AD2F0BD013000D30131121BFAD2013B25
:10539400F8D1A24200D2F0BD013000D30131121B7A
:1053A400F7E7F0B51C0C00D080E00CB400251C0A13
:1053B40004D11B02160E3343120208351C0B04D110
:1053C4001B01160F3343120104359C0B04D19B00BF
:1053D400960F334392000235DC0B02D192185B41E5
:1053E40001351C00971864410134464F7C66464CD5
:1053F4003C660E0CFFE7FFE7FFE7C0463C6F6643E1
:10540400360C7703BE4697B27743C01B00D20139EE
:10541400C01B00D201399FB27743C91BC91B170CAB
:1054240077437E04FF0B801BB941CE086643360CDC
:105434000C2D33DBB644120B1F053A431B0B97B2FA
:105444007743C01B00D201399FB27743C91B170CA5
:1054540077433E043F0C801BB941860D8F023E43C7
:10546400664329277F1BFE400C3D7746AF40BF199A
:1054740030BCA2B2ABB272437343801A9941220C7E
:105484007243130C1204801A994102000B00013775
:10549400001BA941F9D2781E0021F0BD0C277F1B07
:1054A400FE4077467F0BAF40FF19E0E700245D1C08
:1054B40007D0144F7D663966FFE7FFE7FFE7FFE794
:1054C4003C6F95B29EB265436643401BB141150CD7
:1054D4001E0C6543664336042F0C3E432D04401BCB
:1054E400B141994204D202000B0020000021F0BD1A
:1054F40001D19042F7D3801A994101349942F2D3F1
:10550400F6E70000000000D0FFFFFFFF132370B593
:105514001D78012D19D014DD1F48FFF719FC060072
:105524001E48FFF715FC1E4C80223100200000F0BD
:10553400C5F8022D2DD01B48FFF702FC1A4B18604A
:1055440070BD1A4B164CA364F5E7184B144C23603A
:105554006360A360E36023616361A361E361236229
:105564006362A362E36223636363A363E363236409
:105574006364A364E36423656365A365E3652366E9
:105584006366A366E36623676367A367E367A3644D
:10559400D1E7064BA364CEE7534400005346000012
:1055A400F0E000204C330000C8F50020E153002057
:1055B40007B5604601880A0A0230DF2AFAD1C9B267
:1055C400820804D3028840880004104300E0006885
:1055D400014A5050039007BDF0E00020514343437B
:1055E400C9188C46110C83B24B4310B4040C6143AC
:1055F40092B280B2504362431C041B0C001910BCCD
:1056040059411304120CC018514161447047000001
:10561400132310B512481C78FFF79AFB0100012CE4
:105624000AD003DD80220F4800F048F80E48FFF747
:1056340087FB0E4B186010BD0A4C5422200000F06A
:105644003DF80B4B6365A365E36523666366A36658
:10565400E36623676367A367E3672362E361E5E7C0
:1056640053460000F0E100204C330000C8F5002050
:10567400A554002007B5604601880A0A0230DF2AD3
:10568400FAD1C9B2820804D30288408800041043C6
:1056940000E00068014A5050039007BDF0E100208B
:1056A40001480421014B1847C0960020914B00206B
:1056B400014B1B6818470000C0960020014B5B6833
:1056C40018470000C096002010B5002800D110BD76
:1056D40000F020F9FBE7C04610B5094A030014683E
:1056E40084B0002C08D0012200910648524203A93C
:1056F400A047012004B010BD00F058F90020F9E7DC
:105704006CF20020F954002000BEFDE710B5FFF74D
:10571400FBFFC04670B5FFF761FB074D074EB5426E
:1057240009D20024013E761BB60808CD9847230011
:105734000134B342F9D170BD549700206097002022
:10574400030010B5080011001B68984710BDC0463F
:10575400F0B5C64600B5437D07000D001600002BCA
:1057640038D0002A2EDD00216A1E90466A5C037D33
:105774004C1C00200A2A0CD0A64216D043461B5DBE
:1057840021000D3B5A4253416A5CDBB24C1C0A2A8D
:10579400F2D1002BF0D1884217DB022110483B687C
:1057A4009847A64207D02000E8E7864203DD311A75
:1057B4003B6828189847AD19013D2B780D3B5A4298
:1057C40053413B7580BCB846F0BD091A3B682818A4
:1057D4009847E2E70368110028009847F2E7C046BB
:1057E40044950020F0B5DE4657464E464546E0B5A2
:1057F40085B017001C0006000D00FEF743FF0023D0
:10580400314A12184B41802109068B4202D30122EE
:105814002E4B52422E4908008A4602F059FD01904F
:105824006B1C03D1300002F0C7FC0500002C26D00D
:10583400284B9846284B1C68002C15D0002F21D1EA
:10584400264F02E02469002C0ED02368002BF9D0E7
:105854003B68002B01D09C42F4D120002A00310087
:10586400C0472469002CF0D1019B002B28D12800CB
:1058740005B0F0BCBB46B246A946A046F0BD184BE5
:105884009846D7E7154B994602ABDF1D0A239B4682
:1058940002E02469002CE7D02368002BF9D04B46A2
:1058A4001B68002B01D0A342F3D12A003100200051
:1058B400C0475B460122390020003B70C047E8E73F
:1058C400504602F09BFDD2E740420F00FFFFFF7FEE
:1058D400109700208155002018E8002068EE002071
:1058E400715500200A4A1368002B05D10CE01A00F8
:1058F4001B691032002B07D09842F8D1002902D13D
:1059040003691360016170470029FCD01060FAE755
:1059140018E80020F0B5CE46474680B583B06B4604
:105924000600DD1D2870FEF7ADFE00231A4A12188A
:105934004B41802109068B4202D30122174B52426C
:1059440017490800884602F0C3FC164B81461C68C0
:10595400002C14D0144F02E02469002C0FD02368CB
:10596400002BF9D03B68002B01D09C42F4D12000DD
:1059740001222900FFF7ECFE2469002CEFD14B46ED
:10598400002B05D1300003B0C0BCB946B046F0BD11
:10599400404602F033FDF5E740420F00FFFFFF7F72
:1059A4001097002018E8002068EE002070B504006D
:1059B40002F002FC01230100050001222000FFF790
:1059C40011FF084B1C68002C06D06368002B05D01F
:1059D40098472469002CF8D1280070BD2469002C54
:1059E400F3D1F9E718E80020F0B5002915DD0E4BD6
:1059F4000D271A680D4B0E4CD3185D426B414518A8
:105A040020215B001E5F0478A64207D093691942E7
:105A1400FCD101301460A842F5D1F0BD936919425C
:105A2400FCD11760F2E7C046F0FB00200080FCBF09
:105A3400E8FB0020204B70B504000D1E1E682ADD13
:105A4400002010211D4B013C1A689369194214D19E
:105A5400013093691942FCD1136823548542F4D16F
:105A6400002E08D050239363516B183B0B4014490C
:105A74008C466244136028000CE0002E08D05023AA
:105A84009363516B183B0B400D498C466244136081
:105A940000280DD070BD002E0AD05022074B1B6881
:105AA4009A63596B183A0A4005498C4663441A6054
:105AB40003204042EEE7C0469CE70020F0FB0020B4
:105AC40034100000064B10B51B68002B06D00021D3
